:1000000067EF02F00000000000EF00F000000000C9
:0A0010000000000000000000F3D71C
:10001C00CEC86AFF016A0150000A05E1000E68B003
:0C002C00010E016EF8D76ACF01F012003F
:10003800CEC8C9FF016A0150000A05E1000EC7B029
:0C004800010E016EF8D7C9CF01F01200C4
:10005400F250026EF29E0500FF6A0150FE6E0050DF
:08006400FD6E02BEF28E1200D7
:04006C00849012006A
:040070008480120076
:1000740081B001D0FDD7CCC800F0CDC801F0010E8D
:100084000801CC5F000ECD5B0050011015E0ECDFE1
:10009400AEC8E1FFAFC8E2FFCAC8E9FFCBC8EAFFB8
:1000A400EECFE6FFACC800F0ADC801F0D1DF080127
:0A00B400CA4BCB2BDBDFDFD71200B5
:1000BE00380E0801AC6F000EAD6FCE0EAE6F080E8F
:1000CE00AF6FFF0EA86FFF0EA96FFF0EAA6FFF0E88
:0600DE00AB6FC7DF12004A
:1000E400FF0E0801B46FFF0EB56FFF0EB66FFF0E63
:1000F400B76F380EB06F000EB16FCE0EB26F080E30
:10010400B36F949AC651040A02E1948601D094967E
:100114009488C66AC651C612C851C612C751C712BE
:10012400C85305E0C951000AD8B4C78C03D0C953D9
:08013400D8A4C78CC68A120092
:10013C00C0DF040E0B6E0C0E0C6E330E0D6E0D2EFE
:10014C00FED70C2EFCD70B2EFAD700000000010EA8
:10015C001F6F1F0ECA6F080ECB6F010ECC6F000EF7
:10016C00CD6F82DFC6C81FF8C7C820F8C8C821F8F1
:10017C001F0ECA6F080ECB6F030ECC6F000ECD6F27
:04018C0073DF12000B
:100190000B6A0A6A096A00500402F4CF09F0F3CF2F
:1001A00008F001500502F4CF0BF0F3CF0AF0005035
:1001B0000502F3500926F4500A22E86A0B22015086
:1001C0000402F3500926F4500A22E86A0B2208C000
:1001D00000F009C001F00AC002F00BC003F01200E9
:1001E000BBC8C4F8BCC8C5F8040E08011F6F1F0EB9
:1001F000CA6F080ECB6F010ECC6F000ECD6F3ADFC9
:10020000BDC81FF8BEC820F81F0ECA6F080ECB6FFE
:10021000020ECC6F000ECD6F2DDFBFC81FF81F0E72
:10022000CA6F080ECB6F010ECC6F000ECD6F22DFB0
:10023000C06BC16B000EC15D02E1BE51C05D3FE20B
:10024000C26BC36B000EC35D02E1BD51C25D34E2FF
:10025000C0C800F0C1C801F0BDC804F0000E056EB2
:1002600097DFC2510024036EC3510120046E03C006
:1002700000F004C001F00036009001360050C425A3
:10028000E96E0150C521EA6EEECF1FF8004A012A3F
:100290000050C425E96E0150C521EA6EEECF20F86A
:1002A0001F0ECA6F080ECB6F020ECC6F000ECD6F03
:1002B000E1DEC24BC32BC6D7C04BC12BBBD712004C
:1002C0000900F5CFE6FF0006FBE10106F9E11200A7
:1002D000BBC8E1FFBCC8E2FFBDC8E6FF010E0801D4
:1002E000BB25E16E000EBC21E26EBEC8E6FF020E29
:1002F000BB25E16E000EBC21E26EBFC8E6FF120016
:100300009690938096920801C66BC76BC86B010EDE
:10031000C96FE8DE84928482030E0B6E080E0C6EA9
:10032000770E0D6E0D2EFED70C2EFCD70B2EFAD7A6
:10033000BBC8C6F8BCC8C7F8BDC8C8F8FFDE030E06
:100340000B6E080E0C6E770E0D6E0D2EFED70C2E5A
:08035000FCD70B2EFAD71200B6
:100358000E0E08011F6F1F0ECA6F080ECB6F010E1D
:10036800CC6F000ECD6F82DEBBC81FF81F0ECA6FA0
:10037800080ECB6F010ECC6F000ECD6F77DE12002A
:10038800120E08011F6F1F0ECA6F080ECB6F010EE9
:0A039800CC6F000ECD6F6ADE12007C
:1003A2000F0E08011F6F1F0ECA6F080ECB6F010ED2
:1003B200CC6F000ECD6F5DDEBBC81FF81F0ECA6F7B
:1003C200080ECB6F010ECC6F000ECD6F52DE120005
:1003D2000801C46BBBC8C2F8BCC8C3F8080E1F6FC3
:1003E2001F0ECA6F080ECB6F010ECC6F000ECD6FC1
:1003F20040DEC1C81FF81F0ECA6F080ECB6F010E78
:10040200CC6F000ECD6F35DEBDC81FF8BEC820F818
:10041200BFC821F81F0ECA6F080ECB6F030ECC6F38
:10042200000ECD6F26DEC0C81FF81F0ECA6F080E61
:10043200CB6F010ECC6F000ECD6F1BDEC46BC151B2
:10044200C45D13E2C2C8E9FFC3C8EAFFEECF1FF8DA
:10045200C24BC32B1F0ECA6F080ECB6F010ECC6F9F
:0C046200000ECD6F06DEC42BEAD712009E
:10046E00110E08011F6F1F0ECA6F080ECB6F010E03
:10047E00CC6F000ECD6FF7DDBBC81FF81F0ECA6F15
:10048E00080ECB6F010ECC6F000ECD6FECDD12009F
:10049E00100E08011F6F1F0ECA6F080ECB6F010ED4
:1004AE00CC6F000ECD6FDFDDBBC81FF81F0ECA6FFD
:1004BE00080ECB6F010ECC6F000ECD6FD4DD120087
:1004CE0051EC08F0640E0801BB6F020EBC6F010EFA
:1004DE00BD6F0FDF150EBB6F000EBC6F400EBD6FF4
:1004EE00100EBE6F280EBF6F74DE1E0EBB6F52DF76
:1004FE00B80EBB6F080EBC6F010EBD6F010EBE6F46
:10050E00010EBF6FDEDE170EBB6F080EBC6F030E43
:10051E00006EBD0EE16E080EE26EB80EE96E080EAC
:10052E00EA6EEECFE6FF0006FCE1110EC06F0A0E7A
:10053E00C16F48DFB80EBB6F080EBC6F010EBD6FEA
:10054E00BE6BBF6BBEDE150EBB6F080EBC6F030E0F
:10055E00006EBD0EE16E080EE26EB80EE96E080E6C
:10056E00EA6EEECFE6FF0006FCE1110EC06F010E43
:10057E00C16F28DFB80EBB6F080EBC6FBD6B010ECE
:10058E00BE6FBF6B9EDE830EBB6F080EBC6F030E7D
:10059E00006EBD0EE16E080EE26EB80EE96E080E2C
:1005AE00EA6EEECFE6FF0006FCE1110EC06F010E03
:1005BE00C16F08DFB80EBB6F080EBC6FBD6BBE6B94
:1005CE00010EBF6F7EDE900EBB6F080EBC6F030E6A
:1005DE00006EBD0EE16E080EE26EB80EE96E080EEC
:1005EE00EA6EEECFE6FF0006FCE1110EC06F010EC3
:1005FE00C16FE8DEB80EBB6F080EBC6F010EBD6F8B
:10060E00010EBE6F010EBF6F5CDE1E0EBB6F9DDE58
:10061E00B80EBB6F080EBC6F010EBD6FBE6BBF6B0D
:10062E0050DE8B0EBB6F080EBC6F030E006EBD0E40
:10063E00E16E080EE26EB80EE96E080EEA6EEECFAF
:10064E00E6FF0006FCE1110EC06F040EC16FBADEAC
:10065E00B80EBB6F080EBC6F010EBD6F010EBE6FE4
:10066E00010EBF6F2EDE930EBB6F080EBC6F030E16
:10067E00006EBD0EE16E080EE26EB80EE96E080E4B
:10068E00EA6EEECFE6FF0006FCE1110EC06F060E1D
:10069E00C16F98DEB80EBB6F080EBC6FBD6BBE6B24
:1006AE00010EBF6F0EDEA10EBB6F080EBC6F030EE8
:1006BE00006EBD0EE16E080EE26EB80EE96E080E0B
:1006CE00EA6EEECFE6FF0006FCE1110EC06F060EDD
:1006DE00C16F78DE110EBB6FDBDE150EBB6F000E29
:1006EE00BC6F400EBD6F100EBE6F190EBF6F71DD69
:1006FE000A0EBB6FB5DEB80EBB6F080EBC6F010ED7
:10070E00BD6F010EBE6F010EBF6FDBDD9A0EBB6FAC
:10071E00080EBC6F030E006EBD0EE16E080EE26E8B
:10072E00B80EE96E080EEA6EEECFE6FF0006FCE1AB
:10073E00140EC06F0A0EC16F45DEB80EBB6F080EE9
:10074E00BC6F010EBD6FBE6BBF6BBBDD870EBB6F8B
:10075E00080EBC6F030E006EBD0EE16E080EE26E4B
:10076E00B80EE96E080EEA6EEECFE6FF0006FCE16B
:10077E00140EC06F010EC16F25DEB80EBB6F080ED2
:10078E00BC6FBD6B010EBE6FBF6B9BDD850EBB6F6D
:10079E00080EBC6F030E006EBD0EE16E080EE26E0B
:1007AE00B80EE96E080EEA6EEECFE6FF0006FCE12B
:1007BE00140EC06F010EC16F05DEB80EBB6F080EB2
:1007CE00BC6FBD6BBE6B010EBF6F7BDD890EBB6F49
:1007DE00080EBC6F030E006EBD0EE16E080EE26ECB
:1007EE00B80EE96E080EEA6EEECFE6FF0006FCE1EB
:1007FE00140EC06F010EC16FE5DDBFDD7CD7FFD7D4
:1010A20010EE15F0930E006E090E016E0E0EF66E26
:0E10B200080EF76E000EF86E60EC01F01200F2
:10080E0000000000000000000000000000000000DA
:10081E0000000000000000000000000000000000CA
:10082E0000000000000000000000000000000000BA
:10083E0000000000000000000000000000000000AA
:10084E00000000000000000000000000000000009A
:10085E00000000000000000000000000000000008A
:10086E00000000000000000000000000000000007A
:10087E00000000000000000000000000000000006A
:10088E0000000000E4E8E4E8E4E8E4E8E4E8E4E892
:10089E00E4E8E4E8E4E8E4E8E4E80000000000004E
:1008AE000000E4E8E4E8000000000000E4E8E4E80A
:1008BE000000000000000000E4E80000000000005E
:1008CE00000000000000000000000000000000001A
:1008DE00000000000000000000000000000000000A
:1008EE0000000000000000000000E4E8E4E8E4E896
:1008FE00E4E8E4E8E4E8E4E8E4E8E4E8E4E8000056
:10090E000000E4E8E4E80000000000000000000041
:10091E000000000000000000E4E8E4E80000000031
:10092E000000E4E8E4E8000000000000E4E8E4E889
:10093E000000000000000000E4E8000000000000DD
:10094E00E4E80000000000000000000000000000CD
:10095E000000000000000000000000000000000089
:10096E0000000000000000000000E4E800000000AD
:10097E00000000000000000000000000E4E800009D
:10098E000000E4E800000000E4E8E4E8E4E8E4E85D
:10099E00E4E8E4E8E4E800000000E4E80000000019
:1009AE000000E4E8E4E8E4E80000E4E8E4E8E4E871
:1009BE0000000000E4E80000E4E800000000E4E8C5
:1009CE00E4E800000000000000000000000000004D
:1009DE000000000000000000000000000000000009
:1009EE0000000000000000000000E4E80000E4E861
:1009FE00E4E8E4E8E4E8E4E8E4E8E4E8E4E8000055
:100A0E000000E4E80000E4E8E4E800000000000074
:100A1E0000000000E4E8E4E80000E4E80000000064
:100A2E000000E4E80000E4E8E4E8E4E80000E4E8BC
:100A3E0000000000E4E80000E4E800000000E4E844
:100A4E000000000000000000000000000000000098
:100A5E000000000000000000000000000000000088
:100A6E0000000000000000000000E4E80000E4E8E0
:100A7E000000000000000000000000000000000068
:100A8E000000E4E80000E4E80000E4E8E4E8E4E85C
:100A9E00E4E800000000E4E80000E4E800000000E4
:100AAE000000E4E800000000E4E800000000E4E8D4
:100ABE000000000000000000E4E80000E4E8E4E8C4
:100ACE00000000000000E4E80000E4E8E4E8E4E8E8
:100ADE00E4E8000000000000E4E8E4E8E4E8E4E80C
:100AEE00E4E8E4E8000000000000E4E80000E4E8C8
:100AFE0000000000000000000000000000000000E8
:100B0E000000E4E80000E4E80000E4E80000000073
:100B1E00000000000000E4E80000E4E8000000002F
:100B2E000000E4E800000000E4E800000000E4E853
:100B3E0000000000E4E80000E4E8E4E8E4E8000077
:100B4E00000000000000E4E8E4E8000000000000FF
:100B5E00E4E800000000E4E8E4E800000000000023
:100B6E000000E4E8E4E800000000E4E80000E4E847
:100B7E00E4E8E4E8E4E8E4E8000000000000000037
:100B8E000000E4E80000E4E80000E4E8E4E8000027
:100B9E00000000000000E4E80000E4E800000000AF
:100BAE000000E4E800000000000000000000E4E89F
:100BBE0000000000E4E80000E4E80000E4E8E4E8F7
:100BCE00000000000000E4E800000000000000004B
:100BDE00E4E80000E4E8E4E80000000000000000A3
:100BEE0000000000E4E8E4E80000E4E80000000093
:100BFE00000000000000E4E800000000000000001B
:100C0E000000E4E80000E4E80000E4E80000000072
:100C1E00000000000000E4E80000E4E8000000002E
:100C2E000000E4E800000000000000000000E4E81E
:100C3E0000000000E4E80000E4E800000000E4E842
:100C4E00E4E800000000E4E80000000000000000FE
:100C5E0000000000E4E800000000000000000000BA
:100C6E00000000000000E4E80000E4E80000E4E812
:100C7E00E4E8E4E8E4E8E4E8000000000000000036
:100C8E000000E4E80000E4E80000E4E8E4E8E4E85A
:100C9E00E4E800000000E4E80000E4E800000000E2
:100CAE000000E4E800000000000000000000E4E89E
:100CBE0000000000E4E80000E4E80000000000008E
:100CCE00E4E800000000E4E800000000000000007E
:100CDE0000000000E4E8000000000000000000003A
:100CEE00000000000000E4E80000E4E80000E4E892
:100CFE0000000000000000000000000000000000E6
:100D0E000000E4E80000E4E8E4E800000000000071
:100D1E0000000000E4E8E4E80000E4E80000000061
:100D2E000000E4E800000000000000000000E4E81D
:100D3E0000000000E4E80000E4E80000000000000D
:100D4E00E4E8E4E80000E4E8000000000000000031
:100D5E0000000000E4E800000000000000000000B9
:100D6E00000000000000E4E80000E4E80000E4E811
:100D7E000000000000000000000000000000000065
:100D8E000000E4E800000000E4E8E4E8E4E8E4E859
:100D9E00E4E8E4E8E4E800000000E4E80000000015
:100DAE000000E4E800000000000000000000E4E89D
:100DBE0000000000E4E80000E4E80000000000008D
:100DCE000000E4E80000E4E800000000000000007D
:100DDE0000000000E4E80000000000000000000039
:100DEE00000000000000E4E80000E4E80000E4E891
:100DFE00E4E8E4E8E4E8E4E8E4E8E4E8E4E8000051
:100E0E000000E4E8E4E8000000000000000000003C
:100E1E000000000000000000E4E8E4E8000000002C
:100E2E000000E4E800000000000000000000E4E81C
:100E3E0000000000E4E80000E4E80000000000000C
:100E4E000000E4E80000E4E80000000000000000FC
:100E5E0000000000E4E8E4E80000000000000000EC
:100E6E0000000000E4E8E4E80000E4E80000000010
:100E7E00000000000000000000000000E4E8000098
:100E8E0000000000E4E8E4E8E4E8E4E8E4E8E4E88C
:100E9E00E4E8E4E8E4E8E4E8E4E800000000000048
:100EAE000000E4E800000000000000000000E4E89C
:100EBE0000000000E4E80000E4E80000000000008C
:100ECE000000E4E80000E4E800000000000000007C
:100EDE00000000000000E4E8E4E8E4E800000000A0
:100EEE000000E4E8E4E800000000E4E80000000090
:100EFE00000000000000000000000000E4E8000018
:100F0E0000000000000000000000000000000000D3
:100F1E0000000000000000000000000000000000C3
:100F2E0000000000000000000000000000000000B3
:100F3E0000000000000000000000000000000000A3
:100F4E000000000000000000000000000000000093
:100F5E0000000000000000000000E4E8E4E8E4E81F
:100F6E00E4E80000000000000000E4E8E4E8E4E843
:100F7E00E4E8E4E8E4E8E4E8E4E8E4E8E4E80000CF
:100F8E000000000000000000000000000000000053
:100F9E000000000000000000000000000000000043
:100FAE000000000000000000000000000000000033
:100FBE000000000000000000000000000000000023
:100FCE000000000000000000000000000000000013
:100FDE000000000000000000000000000000000003
:100FEE0000000000000000000000000000000000F3
:100FFE0000000000000000000000000000000000E3
:02100E0052008E
:081010004D6174726978200043
:1010180000000000000000000000000000000000C8
:1010280000000000000000000000000000000000B8
:1010380000000000000000000000000000000000A8
:101048000000000000000000000000000000000098
:101058000000000000000000000000000000000088
:101068000000000000000000000000000000000078
:041078000000000074
:02107C0047002B
:02107E00470029
:0210800052001C
:0210820042002A
:0510840042793A200052
:0310890042200002
:07108C00436F72657920003B
:071093004D617472697800E1
:07109A004C616B6579200039
:020000040030CA
:0E0000001D037F7CF98B91FFFFC0FFE0FF40E6
:00000001FF
