:100000000C9415010C9400000C9400000C9400005A
:100010000C9400000C9400000C9400000C94000060
:100020000C9400000C9400000C9400000C94000050
:100030000C9400000C9400000C9400000C94000040
:100040000C9400000C9400000C9400000C94000030
:040050000C9400000C
:10022A00BFE5BDBFB8E0BEBF2F923F924F92B1E08B
:10023A004B2EB2E03B2EB4E62B2E73DFFFCF4F904E
:06024A003F902F90FFCF52
:10012C00CF93DF93CDB7DEB72697CDBFDEBF219639
:10013C002F923F924F925F92B0E0B883B0E0B983B8
:10014C00B0E0BA83B0E0BB83B0E0BC83B0E0BD8369
:10015C00B7B3B061B7BBB7B3BB7FB7BB4424B3E095
:10016C003B2EB0E12B2EA7DF29E01EE105EE0A9510
:10017C00F1F71A95E1F72A95D1F70000BFDFFE01E0
:10018C00B1E0B0838E01B1E04B2EB0E05B2E1801D4
:10019C006DDFFE01B4E6B0838E01F8013196B2E05A
:1001AC00B0838E01F8013296B1E0B0838E01B3E0DA
:1001BC004B2EB0E05B2E180159DFFE01B5E0B08389
:1001CC008E01B1E04B2EB0E05B2E18014FDFFE012B
:1001DC00B3E0B0838E01F8013196B3E0B0838E01A9
:1001EC00F8013296B1E0B0838E01F8013396B0E09D
:1001FC00B0838E01F8013496B0E0B0838E01B5E087
:10020C004B2EB0E05B2E180131DF5F904F903F908A
:0E021C002F902596CDBFDEBFDF91CF910895C4
:1000C200BFEFB0936200BFEFB0936300B6E3B093AB
:1000D2006600B0E0B0936700B7B3B068B7BBB7B320
:1000E200BF7BB7BBB7B3B062B7BBB7B3B061B7BB87
:1000F20032FABEB1B0F9BEB9032D03700429022948
:0601020000640DB9089530
:1001080000916600109167000093640010936500E9
:1001180000916200109163000093600010936100E9
:0401280095DF0895C2
:0C005400B0913800B061B09338000895FE
:10007800B0913800B2FD01C0FBCF9201820101505E
:1000880010402801B22FB32BB9F0E6DFF10100814F
:100098005F924F923F922F92202EE0916400F09150
:1000A800650009952F903F904F905F9081010F5FF9
:0A00B8001F4F1801CBDFE1CF0895C0
:0C006000B0913800BF7EB09338000895C6
:0C006C002FB8BEB1B7FD01C0FCCF089555
:00000001FF
