:100000000C948D010C9400000C9400000C940000E2
:100010000C9400000C9400000C9400000C94000060
:100020000C9400000C9400000C9400000C94000050
:100030000C9400000C9400000C9400000C94000040
:100040000C9400000C9400000C9400000C94000030
:040050000C9400000C
:10031A00BFE5BDBFB8E0BEBF0E942002CDB7DEB7C1
:10032A002397CDBFDEBF21962F923F924F925F92C5
:10033A006F92B1E04B2EB2E03B2EB4E62B2EACDF2F
:10034A008E01B1E06B2EB1E05B2EB1E04B2E1801AD
:10035A009ADFBAE05B2EB1E14B2EB7E62B2EB0E066
:10036A003B2EBA81BF93B981BF93B881BF930FDF88
:10037A00ADB7BEB71396ADBFBEBF8E01B1E06B2E4F
:10038A00B1E05B2EB1E04B2E18017DDFBAE05B2EA7
:10039A00B4E14B2EB0E62B2EB0E03B2EBA81BF93D0
:1003AA00B981BF93B881BF93F2DEADB7BEB71396DA
:1003BA00ADBFBEBFE2CF6F905F904F903F902F903E
:0203CA00FFCF63
:1002A200BAB3B062BABBBAB3B064BABBB1B3BB7FC4
:1002B200B1BB4F923F922F924424B6E03B2EB0E165
:1002C2002B2E10DF2F903F904F90BBB3BF7BBBBB59
:1002D20029E01EE105EE0A95F1F71A95E1F72A9554
:1002E200D1F70000BBB3B064BBBB2DE01DE208ED4B
:1002F2000A95F1F71A95E1F72A95D1F70000000067
:1003020014DF29E01EE105EE0A95F1F71A95E1F7EF
:080312002A95D1F700000895BF
:1000E600BFEFB093D500BFEFB093D600B6E3B093A1
:1000F600D700B0E0B093D800B7B3B068B7BBB7B31A
:10010600BF7BB7BBB7B3B062B7BBB7B3B061B7BB62
:1001160032FABEB1B0F9BEB9032D03700429022923
:0601260000640DB908950C
:10012C002F923F924F925F924F923F922F929EDF6F
:10013C002DE01DE208ED0A95F1F71A95E1F72A95E5
:10014C00D1F700000000B1E0B0936F00B1E04B2E8E
:10015C00B0E05B2EBFE62B2EB0E03B2E99DF2F904C
:10016C003F904F9020926F0030927000409271003F
:10017C00B3E04B2EB0E05B2EBFE62B2EB0E03B2E57
:0C018C0087DF5F904F903F902F90089508
:100078000091D7001091D8000093D3001093D400BA
:100088000091D5001091D6000093D9001093DA00A2
:04009800DDDF08950B
:0C005400B0913B00B062B0933B000895F7
:10009C00B0913200B2FD01C0FBCF92018201015040
:1000AC0010402801B22FB32BB9F0D4DFF10100813D
:1000BC005F924F923F922F92202EE091D300F091BD
:1000CC00D40009952F903F904F905F9081010F5F66
:0A00DC001F4F1801B9DFE1CF0895AE
:0C006000B0913B00BF7DB0933B000895C1
:0C006C002FB8BEB1B7FD01C0FCCF089555
:10029000F1014082F10131965082F1013296608283
:0202A0000895BF
:10019800CF93DF93CDB7DEB72397CDBFDEBF2196D0
:1001A8002F923F924F9228823982B8E0B0936F0025
:1001B8005F924F92B1E04B2EB0E05B2EBFE62B2E44
:1001C800B0E03B2E67DF4F905F9050926F005F92D8
:1001D8004F92B1E04B2EB0E05B2EBFE62B2EB0E085
:1001E8003B2E58DF0F8100936F0008850093700045
:1001F800098500937100B3E04B2EB0E05B2EBFE69B
:100208002B2EB0E03B2E46DF4F9040926F00B1E0BE
:100218004B2EB0E05B2EBFE62B2EB0E03B2E3ADF34
:100228005F90B0E0BA830A81051500F5E881F9818D
:10023800008100936F00088119810F5F1F4F0883A9
:1002480019835F924F923F922F92B1E04B2EB0E00C
:100258005B2EBFE62B2EB0E03B2E1CDF2F903F908D
:100268004F905F900A810F5F0A83DDCF4F903F90D8
:0E0278002F902296CDBFDEBFDF91CF9108956B
:0A02860005900D920197E1F708952D
:10044000A0E6B0E0ECECF3E083E790E00E9443012B
:0204500008950D
:0703CC004D617472697800B5
:0803D3004D617472697820008D
:1003DB000000000000000000000000000000000012
:1003EB000000000000000000000000000000000002
:1003FB0000000000000000000000000000000000F2
:10040B0000000000000000000000000000000000E1
:10041B0000000000000000000000000000000000D1
:10042B0000000000000000000000000000000000C1
:04043B0000000000BD
:00000001FF
