:10000000FCFF0220ED1A0000A51A0000A51A00004E
:10001000A51A0000A51A0000A51A0000A51A0000E4
:10002000A51A0000A51A0000A51A0000A51A0000D4
:10003000A51A0000A51A0000A51A0000A51A0000C4
:10004000A51A0000A51A0000A51A0000A51A0000B4
:10005000A51A0000A51A0000A51A0000A51A0000A4
:10006000A51A0000A51A0000A51A0000A51A000094
:10007000A51A0000A51A0000A51A0000A51A000084
:10008000A51A0000A51A0000A51A0000A51A000074
:10009000A51A0000A51A0000A51A0000A51A000064
:1000A000A51A0000A51A0000A51A0000A51A000054
:1000B000A51A0000A51A0000A51A0000A51A000044
:1000C000A51A0000A51A0000A51A0000A51A000034
:1000D000A51A0000A51A0000A51A0000A51A000024
:1000E000A51A0000A51A0000A51A0000A51A000014
:1000F000A51A0000A51A0000A51A0000A51A000004
:10010000A51A0000A51A0000A51A0000A51A0000F3
:10011000A51A0000A51A0000A51A0000A51A0000E3
:10012000A51A0000A51A0000A51A0000A51A0000D3
:10013000A51A0000A51A0000A51A0000A51A0000C3
:10014000A51A0000A51A0000A51A0000A51A0000B3
:10015000A51A0000A51A0000A51A0000A51A0000A3
:10016000A51A0000A51A0000A51A0000A51A000093
:10017000A51A0000A51A0000A51A0000A51A000083
:10018000A51A0000A51A0000A51A0000A51A000073
:08019000A51A0000A51A0000E9
:101AEC0000F010F8FFF7DCFF01F030FEFFF7EEFF1F
:101AFC0001F0ECFDFFF7B4FEFFF7DAFEFFF712FF83
:041B0C00FCE7FEE70D
:1018580081B01CF8019B0BF8019BBBEB0A0FF8D178
:0418680001B0704714
:101A680081B04FF000094FF0000CBDEB0A0F04DC09
:101A7800BDEB0B0F01DBD446EA464BF8049BBBEBEE
:101A88000A0FFAD1BCEB0A0F05DDE246D9F800B01F
:0A1A98000BF1040BF1E701B07047F9
:10186C0081B0CDF800E0012207210020FFF724FF12
:10187C00002202210020FFF71FFF0022012100207F
:10188C00FFF71AFF094801460020FFF797FE40F6C4
:10189C00FE07C0F23D0700BF00BF7F1EFDD100BF99
:1018AC0000BF00BFDDF800E001B07047D03600008B
:1016C40081B0CDF800E05FFA81F85FFA82F90FE0AB
:1016D4005FFA89F15FFA88F0FFF720FD0DE05FFA09
:1016E40089F15FFA88F0FFF735FC06E0012004E099
:1016F4000028EDD00128F2D0F8E7DDF800E001B0D1
:0217040070472C
:1011200081B0CDF800E0A9E0012905D14FF004011C
:101130006548FFF72BFD04E04FF004016348FFF71B
:1011400001FDBBE0012905D14FF400615E48FFF7C6
:101150001DFD04E04FF400615C48FFF7F3FCADE0D7
:10116000012905D14FF010015948FFF70FFD04E0A8
:101170004FF010015748FFF7E5FC9FE0012905D12A
:101180004FF020015248FFF701FD04E04FF020012D
:101190005048FFF7D7FC91E0012905D14FF08001BD
:1011A0004B48FFF7F3FC04E04FF080014948FFF79C
:1011B000C9FC83E0012905D14FF040014448FFF705
:1011C000E5FC04E04FF040014248FFF7BBFC75E04E
:1011D000012905D14FF480613F48FFF7D7FC04E0B7
:1011E0004FF480613D48FFF7ADFC67E0012905D170
:1011F0004FF400513448FFF7C9FC04E04FF40051AC
:101200003248FFF79FFC59E0012905D14FF0040156
:101210003348FFF7BBFC04E04FF004013148FFF70F
:1012200091FC4BE0012905D14FF008012C48FFF754
:10123000ADFC04E04FF008012A48FFF783FC3DE0D5
:10124000012905D14FF480712548FFF79FFC04E088
:101250004FF480712348FFF775FC2FE0012905D179
:101260004FF400711E48FFF791FC04E04FF4007149
:101270001C48FFF767FC21E0012020E000283FF434
:1012800053AF01283FF45EAF02283FF469AF032853
:101290003FF474AF04283FF47FAF05283FF48AAFD2
:1012A00006283FF495AF0728A0D00828ACD009281D
:1012B000B8D00A28C4D00B28D0D0DDE70020DDF854
:1012C00000E001B0704700BF50F00F4040F00F4009
:1012D00090F00F4080F00F4010F00F4000F00F40F2
:0812E000D0F00F40C0F00F40F8
:100B8C0081B0CDF800E0034AFFF702FFDDF800E08A
:080B9C0001B0704704010200E2
:10099C0081B0CDF800E0FFF7E5FDDDF800E001B037
:0209AC00704792
:1005700083B0CDF800E006460C4615463046FFF73E
:1005800079FF40F2FF1306EA0300800900262246A5
:100590002946202E39D24FF0010303FA06F402EA6D
:1005A00004031F46A3422ED104031A4B1C19B300A7
:1005B000E51801952C68184B04EA03032B60174BD0
:1005C00001EA0304019B1B6843EA0404019B1C60CD
:1005D00001F48033B3F5803F15D08401104B1B1913
:1005E0001433029301F400333BB1FC43029B1B68BC
:1005F00003EA0404029B1C6005E0029B1B6843EABB
:100600000704029B1C60761CC3E7DDF800E003B022
:10061000704700BF009004400000FFFFFFFF000094
:0406200000F00F4097
:1004740081B040F2FF1100EA01018909084600F247
:1004840009024FF0010101FA02F20449096841EA44
:10049400020202490A6001B0704700BF388004407C
:100B440081B0CDF800E0034AFFF726FFDDF800E0AE
:080B540001B070470401040028
:100F580081B0CDF800E0A9E0012905D14FF00801E2
:100F68006548FFF70FFE04E04FF008016348FFF7FC
:100F7800E5FDBBE0012905D14FF400215E48FFF7EC
:100F880001FE04E04FF400215C48FFF7D7FDADE017
:100F9800012905D14FF010015948FFF7F3FD04E08E
:100FA8004FF010015748FFF7C9FD9FE0012905D10F
:100FB8004FF020015248FFF7E5FD04E04FF0200113
:100FC8005048FFF7BBFD91E0012905D14FF08001A2
:100FD8004B48FFF7D7FD04E04FF080014948FFF781
:100FE800ADFD83E0012905D14FF040014448FFF7EA
:100FF800C9FD04E04FF040014248FFF79FFD75E04E
:10100800012905D14FF010013F48FFF7BBFD04E06F
:101018004FF010013D48FFF791FD67E0012905D128
:101028004FF480713448FFF7ADFD04E04FF4807150
:101038003248FFF783FD59E0012905D14FF480318B
:101048003348FFF79FFD04E04FF480313148FFF744
:1010580075FD4BE0012905D14FF400312C48FFF70D
:1010680091FD04E04FF400312A48FFF767FD3DE0A9
:10107800012905D14FF480612548FFF783FD04E07D
:101088004FF480612348FFF759FD2FE0012905D16E
:101098004FF400611E48FFF775FD04E04FF400614E
:1010A8001C48FFF74BFD21E0012020E000283FF419
:1010B80053AF01283FF45EAF02283FF469AF03281D
:1010C8003FF474AF04283FF47FAF05283FF48AAF9C
:1010D80006283FF495AF0728A0D00828ACD00928E7
:1010E800B8D00A28C4D00B28D0D0DDE70020DDF81E
:1010F80000E001B0704700BF50F00F4040F00F40D3
:10110800D0F00F40C0F00F4010F00F4000F00F403B
:0811180090F00F4080F00F4041
:1015C80081B0CDF800E009E00846FFF7AFFC0AE07B
:1015D8000846FFF785FE06E0012004E00028F3D066
:0E15E8000128F5D0F8E7DDF800E001B070470B
:100F340081B0CDF800E0011D0A6801680846114639
:100F4400034AFFF7E7FD0020DDF800E001B0704739
:040F5400AC350000B8
:100B180081B0CDF800E003460C4615460648FFF7BD
:100B280089FE224619462B460348FFF7B9FEDDF831
:0C0B380000E001B0704700BF00C00240A8
:10083C0081B00F49884206D10E4A0F490A600F4A0F
:10084C000F490A6012E00F49884206D10E4A0A4944
:10085C000A600E4A0A490A6008E00D49884205D12F
:10086C000C4A05490A600C4A05490A6001B07047F8
:10087C0000C00240F10900000805FF1FFFFFFFFF49
:10088C000C05FF1F00D00240B1090000FFFFFFFF65
:0C089C0000C00A40D1090000FFFFFFFF70
:1008A80084B0CDF800E00391014610460190029112
:1008B8001846FFF733FE0299019800F01004240946
:1008C8002346019002910846FFF790FF0299029192
:1008D8000846FFF7A3FE0299019800F000450C684E
:1008E8002C430C6000F080450C682C430C600C68AD
:1008F80044F440540C600D686FF4804405EA040425
:100908000C6001F20C059C002E1900F00F053468EC
:100918002C43346001F20C059C002E1900F0806510
:1009280034682C43346001F20C059C002E1900F049
:10093800007534682C43346001F20C059C002E19B4
:1009480000F0807534682C43346001F20C059C007B
:100958002E1935686FF0F04405EA0404346001F29A
:100968000C059C002E1900F00F04E50634682C4392
:1009780034600191039A0846D9B2FFF783FE0199C2
:100988000D686FF0010405EA04040C60DDF800E06E
:0409980004B07047F0
:1005240081B0CDF800E040F2000C83464FEA8C0124
:100534000BEB01010968B1F1FF3F12D00BF134015B
:100544004FEA8C03C91809680A460BEB03010968D2
:1005540008461146FFF760FF0CF1010C1FFA8CFCF2
:0A056400E4E7DDF800E001B07047A5
:10041C0082B0CDF800E080464FEA581202F0070295
:10042C00914608F01F04A24693010D4AD3184FF0D1
:10043C000102A240019218460A46019900F0A8FA5E
:10044C004FEA0933074AD3184FEA8A029C1808F47A
:10045C00E06322681A432260DDF800E002B07047C6
:08046C0000F00F400090044075
:1007F40081B00B49884203D1012252B209490A60EF
:100804000949884203D1012252B208490A600849C1
:10081400884203D1012252B206490A6001B07047EE
:1008240000C00240B007904200D00240B40790429A
:0808340000C00A4030069042AA
:1006240081B002686FF4804102EA0101016001684F
:1006340041F00101016000F22C021149116000F245
:1006440008020021116000F20C024FF0F041116029
:1006540000F210024FF0F041116000F2300200216C
:10066400116000F2340200211160016841F440611C
:1006740001600268034942EA0101016001B0704768
:0806840000000A9A0140000089
:10068C0091B0CDF800E00F9010468DF840100E9010
:10069C0001AB1846FFF700FF4FF0FF330D9300231B
:1006AC0006930023089301230A9300230B93002342
:1006BC000593059B042B41D20D9B002B3ED00023B0
:1006CC000793079B102B35D20D9B002B32D00123A7
:1006DC000993099B032B29D20D9B3BB3099C029BCD
:1006EC0003FB04F6059B9C00314B1B191D68079BF3
:1006FC009C00304B1B191B686B43B6FBF3F4204674
:10070C000E9BA3420ED30E9B1C1A0C940D9BA34262
:10071C0008D90C9B0D93059B0693079B08930B9094
:10072C00099B0A93099B5B1C0993D2E7079B5B1CF3
:10073C000793C6E7059B5B1C0593BAE70F9B03F277
:10074C000C049DF840309B00E5182C681A4B04EA09
:10075C0003032B600F9B03F20C049DF840309B00AD
:10076C00E5180A9B5B1EDC072B6823432B600F9B51
:10077C0003F20C049DF840309B00E518069B1B040B
:10078C0003F440342B6823432B600F9B03F20C04BF
:10079C009DF840309B00E518089B03F00F042B6874
:1007AC0023432B600B98DDF800E011B0704700BFBD
:0C07BC00B836000078360000F0FFFC7F2B
:1004A40081B0CDF800E00446FFF7B0FF40F2E83138
:1004B40000FB01F3194909680A0F1849096801F09A
:1004C4007061090EC8B21549096801F47001090D7B
:1004D400CDB21249096801F47021090CCEB2D1B22F
:1004E400491C09B259430F462360221D411C09B21D
:1004F400B7FBF1F1116004F20802691C09B2B7FB01
:10050400F1F1116004F20C02711C09B2B7FBF1F1B4
:100514001160DDF800E001B0704700BF4480044082
:0C04100001480068704700BF0405FF1F92
:1012E80081B0CDF800E0011D0A6801680846114682
:1012F800034AFFF771FC0020DDF800E001B07047F9
:04130800403500006C
:100BE00081B0CDF800E003460C4615460648FFF7F5
:100BF00025FE224619462B460348FFF755FEDDF831
:0C0C000000E001B0704700BF00D00240CF
:1018BC0081B0CDF800E018491848FFF7B3FFFFF7E7
:1018CC0095FE0020FFF71AFF0120FFF779FD45F682
:1018DC00FE17C0F2622700BF00BF7F1EFDD100BF04
:1018EC0000BF00BF00224FF6FF710D48FFF73CFE12
:1018FC004FF6FF70FFF7F8FD45F6FE17C0F26227B2
:10190C0000BF00BF7F1EFDD100BF00BF00BFDDF8D0
:10191C0000E001B0704700BFC83600001836000068
:04192C000900FF1F90
:1018300081B0CDF800E003460846FFF709FA1846E4
:10184000FFF7F0F90120034C2468A047DDF800E021
:0818500001B070471C05FF1FE9
:0C13240001490860704700BF0808FE4344
:0C13180001490860704700BF2C08FE432C
:0C130C0001490860704700BF1010FE434C
:0C0F280001490860704700BF1410FE4330
:0C0EEC0001490860704700BF1C10FE4365
:0C0EE00001490860704700BF1810FE4375
:0C0ED40001490860704700BF2800FE4381
:0C0EF80001490860704700BF3408FE4349
:0C0F1C0001490860704700BF0818FE4340
:0C0F100001490860704700BF0C18FE4348
:0C0F040001490860704700BF2018FE4340
:0C139C0001490860704700BF2418FE43A0
:0C13900001490860704700BF0C08FE43D4
:0C13840001490860704700BF4C08FE43A0
:0C13A80001490860704700BF1018FE43A8
:0C13B40001490860704700BF1418FE4398
:0C13C00001490860704700BF1C18FE4384
:0C13780001490860704700BF1818FE43D0
:0C13480001490860704700BF1000FE4320
:0C133C0001490860704700BF2008FE4314
:0C13300001490860704700BF4010FE43F8
:0C136C0001490860704700BF4410FE43B8
:0C13600001490860704700BF2810FE43E0
:0C13540001490860704700BF2C10FE43E8
:100C5000026803490A60011D0A6802490A60704778
:080C60003405FF1F3805FF1FDA
:100C240000F230011C310A6805490A6000F208012B
:100C34000A6804490A60011D0A6803490A6070478A
:0C0C44001805FF1F1C05FF1F3005FF1FD7
:1015F80081B0CDF800E001200A4C2468A047FFF72D
:101608002FFB0020074C2468A047FFF729FB012087
:10161800044C2468A047FFF723FBDDF800E001B085
:08162800704700BF3005FF1FF1
:100C680040F6FE07C0F23D0700BF00BF7F1EFDD162
:080C780000BF00BF00BF704780
:1017080081B0CDF800E059E0202244490A80202227
:1017180043490A8040F2004242490A8075E040226B
:101728003E490A8020223E490A8040F600023D498F
:101738000A806AE0202239490A80402238490A8012
:1017480040F6000237490A805FE0602233490A8088
:10175800202233490A8040F6004232490A8054E088
:1017680020222E490A8060222D490A8040F6004234
:101778002C490A8049E0802228490A8020222849E9
:101788000A8041F2000227490A803EE020222349CC
:101798000A80802222490A8041F2000221490A80F7
:1017A80033E040221D490A8040221D490A8041F247
:1017B80000021C490A8028E001202BE000283FF4A1
:1017C800A3AF01283FF4A0AF02283FF4A8AF032835
:1017D8003FF4A5AF04283FF4ADAF05283FF4AAAF06
:1017E8000628B2D00728B0D00828B9D00928B7D021
:1017F8000A28C0D00B28BED00C28C7D00D28C5D0C9
:101808000E28CED00F28CCD0D6E7C1B21020FFF7D3
:1018180037FB0020DDF800E001B070471005FF1F1E
:081828001205FF1F2005FF1F40
:100E880082B0CDF800E0C6B2CDB201AC2670621CCB
:100E980015700C4C2468A04700B1FAE700200A4CF2
:100EA8002468A04701AA02211046FFF70DFE012081
:100EB800054C2468A047FFF759FEDDF800E002B0B2
:0C0EC800704700BF1805FF1F1C05FF1F2E
:0C0AAC0001480068704700BF080AFE43C4
:0C0AA00001480068704700BF2C0AFE43AC
:0C0AC40001480068704700BF1012FE439C
:0C0AB80001480068704700BF1412FE43A4
:0C0A7C0001480068704700BF1C12FE43D8
:0C0A880001480068704700BF1812FE43D0
:0C0A940001480068704700BF2802FE43C4
:0C0A700001480068704700BF340AFE43D4
:0C0A280001480068704700BF081AFE4338
:0C0A340001480068704700BF0C1AFE4328
:0C0A100001480068704700BF201AFE4338
:0C0A640001480068704700BF241AFE43E0
:0C0A4C0001480068704700BF0C0AFE4320
:0C0A400001480068704700BF4C0AFE43EC
:0C0A580001480068704700BF101AFE4300
:0C0A1C0001480068704700BF141AFE4338
:0C0BC80001480068704700BF1C1AFE4383
:0C0BBC0001480068704700BF181AFE4393
:0C0BB00001480068704700BF1002FE43BF
:0C0BD40001480068704700BF200AFE4383
:0C0C180001480068704700BF4012FE4316
:0C0C0C0001480068704700BF4412FE431E
:0C0BA40001480068704700BF2812FE43A3
:0C0B0C0001480068704700BF2C12FE4337
:100AD00083B0CDF800E08AB2014690B283B2421EE4
:100AE00090B26BB10A78D4B2ADF804000291A0B212
:100AF000054C2468A0470299BDF80400491CEDE7A5
:0C0B0000DDF800E003B070473405FF1F73
:1009F00081B0CDF800E082B24FF080610348FFF78C
:100A0000E3FEDDF800E001B0704700BF00C0024027
:1007C80081B000F22C044FF00043236000F234049F
:1007D80093B241EA0303236000F22C031C68C4F3BC
:0A07E800C07303B9F8E701B07047D1
:1009B00081B0CDF800E082B24FF080610348FFF7CC
:1009C00003FFDDF800E001B0704700BF00D0024037
:1009D00081B0CDF800E082B24FF080610348FFF7AC
:1009E000F3FEDDF800E001B0704700BF00C00A4030
:100B740049F63E47C0F2000700BF00BF7F1EFDD10B
:080B840000BF00BF00BF704775
:1013CC0081B0CDF800E0C1B20120FFF757FDDDF888
:0613DC0000E001B07047C3
:101574000E4B1860831C1C78C31C1B781B029BB287
:10158400E4180B4B1C80031D1C78431D1B781B02A5
:101594009BB2E418074B1C80831D1C78064B1C80EF
:1015A400064B1980064B1A70704700BF2805FF1FB1
:1015B4002205FF1F2405FF1F2605FF1F2C05FF1F03
:0415C4000305FF1FFD
:1014F40083B0CDF800E085B203248DF808400DF1E7
:1015040009042570611C2C0A0C70164C2468A04731
:1015140000B1FAE70020144C2468A04702A9084649
:101524000121FFF7D3FA00201049098888420ED21E
:101534000DF10901ADF8040008460221FFF7C6FACF
:10154400BDF80400FFF714FB401C80B2ECE7012057
:10155400054C2468A047FFF70BFBDDF800E003B05F
:10156400704700BF1805FF1F1C05FF1F2005FF1F44
:1019300082B0CDF800E00521322914D2ADF80410B0
:10194000C8B2FFF781FDBDF8041048F27E47C0F22F
:101950001E0700BF00BF7F1EFDD100BF00BF00BF3C
:10196000491C89B2E8E73221052914D9ADF80410E1
:10197000C8B2FFF769FDBDF8041048F27E47C0F217
:101980001E0700BF00BF7F1EFDD100BF00BF00BF0C
:10199000491E89B2E8E70020FFF7ACFD00212029AD
:1019A00016D2ADF804104FF2001288B2FFF758FDBE
:1019B000BDF8041040F6FE07C0F23D0700BF00BFAF
:1019C0007F1EFDD100BF00BF00BF491C89B2E6E702
:1019D0002021002917D9C1F11F00ADF804104FF2E2
:1019E0000012FFF73DFDBDF8041040F6FE07C0F2FF
:1019F0003D0700BF00BF7F1EFDD100BF00BF00BF7D
:101A0000491E89B2E5E70020FFF774FD134805225F
:101A10000621FFF7E7FC124814220421FFF7E2FC3D
:101A20004BF2FE37C0F2C44700BF00BF7F1EFDD19E
:101A300000BF00BF00BF0B48FFF7FAFD45F6FE17D9
:101A4000C0F2622700BF00BF7F1EFDD100BF00BFF4
:101A500000BFDDF800E002B0704700BF0000FF1FCC
:081A60000400FF1F3C20000000
:1014480081B0CDF800E0C1B20220FFF719FDDDF848
:0614580000E001B0704746
:1014600083B0CDF800E01F4B1B88984204D21E4B7E
:101470001B88994200D201E001202EE004238DF860
:101480000430184B1B884B439BB21B189EB20DF1C6
:1014900005052A706B1C140A1C70AB1C1E70EB1C1B
:1014A000340A1C70114C2468A04700B1FAE70020F0
:1014B0000F4C2468A04701AB01211846FFF708FB39
:1014C0000DF1050304211846FFF702FB0120084C2B
:1014D0002468A047FFF74EFB0020DDF800E003B0D2
:1014E000704700BF1005FF1F1205FF1F1805FF1FE3
:0414F0001C05FF1FB9
:1013E40083B0CDF800E0134B1B88994204D2124B12
:1013F4001B889A4200D201E0012017E000240F4B21
:1014040019800F4B1A80A1B243181B786BB1431893
:101414001B780190ADF8081098B2FFF72FFCBDF8C7
:1014240008100198491C89B2EEE70020DDF800E0BD
:1014340003B070471005FF1F1205FF1F1405FF1F9F
:041444001605FF1F6B
:100C800086B0CDF800E040F20001ADF81010002170
:100C90008DF8121074490988884200D2DFE0734948
:100CA0000988884200D9DAE06F490988411A89B277
:100CB0008A0092B26E4C216808318B1819788DF831
:100CC0001310591C0978CAB2991C097809025218E4
:100CD000D91C09780904521821460968891803911A
:100CE0006449097821B163490978022900D05EE09E
:100CF00061490B880022614909888A424BD26049C8
:100D00000988ADF8101000218DF8141000218DF81D
:100D10000810D0B29DF813209DF80810914235D2EA
:100D20009DF8141049B9039909788DF812100399A8
:100D3000491C039101218DF814109DF814209DF891
:100D400012101140C9B289B14E4909888DF80400CA
:100D5000ADF806308AB299B2BDF8100000F080FB01
:100D6000BDF806309DF80400FFF7F8FEBDF810103E
:100D7000491CADF810109DF8141049008DF814109E
:100D80009DF80810491C8DF80810C3E75B1C9BB246
:100D9000411CCAB2AFE73749097829B9BDF810102C
:100DA0004A1C37490A8001E033490B8057E0344937
:100DB0000B880022314909888A424BD22E49098882
:100DC000ADF8101000218DF8141000218DF80810D6
:100DD000D0B29DF813209DF80810914235D29DF8AD
:100DE000141049B9039909788DF812100399491C18
:100DF000039101218DF814109DF814209DF8121014
:100E00001140C9B289B11F4909888DF80400ADF8B5
:100E100006308AB299B2BDF8100000F021FBBDF88F
:100E200006309DF80400FFF799FEBDF81010491E2A
:100E3000ADF810109DF8141049008DF814109DF8AD
:100E40000810491C8DF80810C3E75B1C9BB2421CBC
:100E5000D2B2AFE7BDF810104A1E07490A80DDF88C
:100E600000E006B0704700BF2205FF1F2405FF1FEA
:100E70002805FF1F0305FF1F1605FF1F2605FF1F7F
:080E80001405FF1F2C05FF1FE4
:100B5C0040F62E47C0F2000700BF00BF7F1EFDD13C
:080B6C0000BF00BF00BF70478D
:1016300084B0CDF800E0039003248DF808401E4CE0
:101640002468A04700B1FAE700201C4C2468A0479A
:1016500002A908460121FFF73BFA0024A0B218496D
:10166000098888421ED20DF10904420092B2039902
:10167000891809782170631C410089B24A1C92B212
:101680000399891809781970ADF8040002212046E1
:10169000FFF71EFABDF80400FFF76CFA411C8CB28C
:1016A000A0B2DCE70120054C2468A047FFF762FAEE
:1016B000DDF800E004B070471805FF1F1C05FF1F90
:0416C0002005FF1FE3
:101B100090B072B69748019097480290974803900A
:101B200097480490974805909748069097480790E3
:101B3000974808909748099097480A9097480B90C3
:101B400097480C90974998480D9098480E900D989A
:101B500000F007000F9001F0010050B94CF2205046
:101B6000934908804DF62810088040F2D211914820
:101B700001809148007800F0010050B18F48007852
:101B800000F0080020B18D49087840F00800087086
:101B900021E08B48006840F0005189480160894885
:101BA000006800F48070B0B9864801686FF4705026
:101BB00001EA000040F440718248016081480068F9
:101BC00040F480717F4801607E4801686FF40070C6
:101BD00001407C480160AA217B4801700D9800F00B
:101BE000100060B9794801786FF0600001407748D3
:101BF000017077480078012800D0FAE71CE00D98C2
:101C000000F01000C0B10E997248814208D96021DD
:101C10006E4801706E480078802800D0FAE70BE02B
:101C20006A4801786FF060000140684801706848B8
:101C30000078012800D0FAE70499674801606748F6
:101C400001686FF440200140029800F440200143F5
:101C500062480160624801686FF4403001400398B7
:101C600000F4403001435E4801600F9830B10F9896
:101C7000012803D00F98022800D061E0019800F0FD
:101C8000800050B9089800F0400028B10B9800F08F
:101C90000300002800D100E015E05248006840F43D
:101CA00000715048016050480168504801404E485A
:101CB0000160069800F0040028B14D4801684B48C7
:101CC00001404B4801600A994A48017005994A4809
:101CD0000170059800F0040038B14848007800F021
:101CE0001000002800D1F8E705E04448007800F033
:101CF000100000B1F9E74248007800F0BF01C9B216
:101D0000069800F0FD0001433D480170079800F07F
:101D1000E0013C48007800F01F00014339480170A1
:101D20000199394801700B99384801700F980228C1
:101D300005D13348007840F0020131480170B8E025
:101D4000019800F0800020B90B9800F0030000B16A
:101D500065E02448006840F4007122480160224890
:101D600001682248014020480160069800F0040004
:101D700000F04EB80000000000000C000000010060
:101D800000001401220000002400000000000000F8
:101D900002000000460000000000000000000000FB
:101DA000000000000000000007000000C0D4010097
:101DB0000E2005400020054000F0074002D00740FB
:101DC0003C80044010D0034000E0074001E00740A1
:101DD00003E0074080380100448004400070044064
:101DE000048004403880044048900440FFF8FFFE1F
:101DF0004C90044008400640004006400640064023
:101E00000140064003400640005006400C4006409A
:101E100028B17A4801687A480140784801600A99F7
:101E2000784801707848007800F0BF01C9B2069880
:101E300000F0FD000143744801700199734801707E
:101E40000B99734801700F98072805D1059840F049
:101E500080017048017002E005996E480170069893
:101E600000F0040048B10B9800F0030028B96A485C
:101E7000007800F0020000B9F9E7059800F00400CE
:101E800038B16548007800F01000002800D1F8E76C
:101E900005E06148007800F0100000B1F9E707980C
:101EA00000F0E0015D48007800F01F0001435B484E
:101EB0000170089800F0BF0159480170099800F0BE
:101EC000BF0158480170089800F0400028B15448FC
:101ED000007840F04001524801700F98052806D163
:101EE0004948007840F00201474801701BE00F9814
:101EF000062803D00F98072800D014E0494800783E
:101F000040F04001474801704348007800F040002D
:101F100000B9F9E70F98072805D13E48007800F08E
:101F20003F013C4801700F9818B10F98032800D06A
:101F30002CE03948007800F00C0000B1F9E73A488D
:101F4000006840F00101384801604FF00001374857
:101F500001604FF08001364801604FF005013548BF
:101F600001604FF00101324801603148006800F023
:101F7000800000B9F9E700212D4801602A48016876
:101F80006FF001000140284801602AE00F98012805
:101F900003D00F98022800D007E01F48007800F017
:101FA0000C00042800D0F8E71BE00F98042806D0A6
:101FB0000F98062803D00F98052800D007E0164890
:101FC000007800F00C00082800D0F8E709E00F982E
:101FD000072806D11048007800F00C000C2800D02B
:101FE000F8E7154801686FF00F0001400C9800F009
:101FF0000F0001431048016010B070474C9004403E
:10200000FFF8FFFE08400640014006400050064031
:102010000C40064000400640064006400340064093
:102020000440064005400640388004400800044053
:0C2030000000044004000440488004400C
:101AD80081B002490248016001B07047C0D40100DA
:041AE8000405FF1FD3
:081AA40081B0FEE701B07047BC
:101AAC0081B072B60849086840F47000086000BF45
:101ABC0000BF00BF00BFF1EE100A40F44000E1EEA1
:0C1ACC00100A62B601B0704788ED00E01F
:1036D80000B5DFF814B0DFF814A0DFF814C0FEF767
:1036E800B7F800BD704700BF0000FF1F0305FF1FAC
:0436F8003C30000062
:1037580000B5DFF810B0DFF810A0FEF781F900BD62
:0C376800704700BF0000FF1F3C05FF1F62
:100400000000000000000000FFFFFFFF02FDFFFFF3
:10203C00FFFFFFFFFFFFFFFFFFFFFFFFFFFFFFFFA4
:10204C00FFFFFFFFFFFFFFFFFFFFFFFFFFFFFFFF94
:10205C00FFFFFFFFFFFFFFFFFFFFFFFFFFFFFFFF84
:10206C00FFFFFFFFFFFFFFFFFFFFFFFFFFFFFFFF74
:1023BC007AFE92F492F4D3F4D3F4B3F492F4B3F42B
:1023CC00D3F492F459FEFFFFFFFFFFFFFFFFFFFF67
:1023DC00FFFFFFFFFFFFFFFFFFFFFFFFFFFFFFFF01
:1023EC00FFFFFFFFFFFFFFFFFFFFFFFFFFFFFFFFF1
:1023FC00FFFFFFFFFFFFFFFFFFFFFFFFFFFFFFFFE1
:10240C00FFFFFFFFFFFFFFFFFFFFFFFFFFFFFFFFD0
:10241C00FFFFFFFFFFFFFFFFFFFFFFFFFFFFFFFFC0
:10242C00FFFFFFFFFFFFFFFFFFFFFFFFFFFFFFFFB0
:10243C009AFE62E86AF205E942E846E92DF305E9FD
:10244C0083E8C4E8DBFE10F400E8F3F409EA01E8E1
:10245C0096FD00E014F500E835F5FFFFFFFFFFFFE8
:10246C00FFFFFFFFFFFFFFFFFFFFC4E842E80DF394
:10247C0009EAE8E9FFFFFFFFFFFFFFFFC4E8ECF20A
:10248C00FFFFFFFF3CFFDFFFFFFFFFFFFFFFFFFF33
:10249C00FFFFFFFFFFFFFFFFFFFFFFFFD3F400E095
:1024AC0035F500E87DFFFFFFFFFFFFFFFFFFFFFF9C
:1024BC0039FE51F4FFFFFBFE4AEAFFFFFFFFFFFF6F
:1024CC004AEA01E8FCFE30F401E851F486E921E81F
:1024DC0039FEB3F4DBFE00E876F5FFFFFFFFFFFFEC
:1024EC00FFFFFFFFDFFFFFFFFFFFE4E822E8CBF277
:1024FC0009EAE8E9FFFFFFFFFFFFFFFFC4E80CF369
:10250C00FFFF9EFF00E0F8FDFFFFFFFFFFFFFFFF57
:10251C007DFFFFFFFFFFFFFFFFFFFFFFDBFEB3F4BD
:10252C0096FD00E8DFFFFFFFFFFFDFFFFFFFFFFF70
:10253C0039FEB3F4B7FD35F5FFFFFFFFFFFFFFFFDB
:10254C00FFFF00E8FCFE31F421E8AFF305E942E8B7
:10255C00D7FD00E855FD01E810F400E892F400E81E
:10256C006AF2BAFE00E001E8FFFFC4E829EAFFFFC7
:10257C00A7E929F23CFF00E800E8FFFFE4E8CFF30D
:10258C0001E8CCF242E8AFF342E8A7E935F529EAD5
:10259C0000E0AFF3D7FD00E805E905E9D7FD00E859
:1025AC0055FD01E8AFF346E9BAFE00E800E8BEFFCE
:1025BC007AFE29EA18FE10F4FFFFFFFFAFF3FFFFCE
:1025CC00FFFF45E9DBFE31F442E8ABF2A3E842E859
:1025DC00D7FD00E875FD42E84AEA46E955FD42E8B8
:1025EC0066E9ECF208EA62E814F505E9ECF2FFFFA3
:1025FC0087E98BF26EF387E9C4E8D3F466E94AEA1B
:10260C0021E835F501E851F4C4E842E851F421E839
:10261C008BF201E8F8FD21E88AF221E896FD00E84A
:10262C0075FD42E808EACFF36AF24AEA42E8D3F4CD
:10263C0039FEB3F4B2F48EF3FFFFFFFF46E9FFFF60
:10264C00FFFF8AF2BAFE30F4C4E846E946E942E8F4
:10265C00D7FD00E876FD62E8A3E82DF334F542E8F7
:10266C0025E9E8E9AFF305E931F466E9C4E8B3F428
:10267C00E8E9ABF28BF22DF3E8E9AFF3A7E9C4E894
:10268C00A3E8FFFF00E8FCFEA3E842E80CF322E815
:10269C00D3F401E814F501E8D3F401E875FD01E881
:1026AC0076FD62E862E8B6FD25E972F4A3E872F4FF
:1026BC0059FEF0F3FFFF96FDFFFFFFFF87E9FFFFD9
:1026CC00FFFF0CF39AFE10F4A7E983E808EA42E84E
:1026DC00D7FD00E876FD62E862E892F414F500E8B4
:1026EC00FFFF25E9AFF304E931F466E921E80DF3C6
:1026FC0009EAABF28BF2A3E821E86EF3C7E983E8B1
:10270C0008EAFFFF00E8BBFE62E80CF33DFF00E8BF
:10271C00B2F401E814F501E8B2F401E876FD01E841
:10272C0076FD62E822E89AFE38FE51F421E872F454
:10273C0059FE10F435F5B6FDFFFFFFFFFFFFFFFF5D
:10274C00FFFF0CF39AFE10F4E8E9C4E8ABF221E8C1
:10275C00D7FD00E876FD62E883E86EF314F500E837
:10276C00FFFF05E9AFF304E951F446E929EADFFF7D
:10277C00A7E9ABF28AF245E972F459FE66E9A3E8DF
:10278C00C4E8FFFF00E8BBFE42E810F4DBFE00E803
:10279C00B2F401E814F501E8B2F401E876FD01E8C1
:1027AC0076FD62E842E896FD96FD01E883E872F456
:1027BC0059FE8FF3FFFF35F5FFFFFFFFFFFFFFFF14
:1027CC00FFFF4DF39AFE10F4E8E966E94DF321E8BA
:1027DC00D7FD00E876FD62E805E908EA55FD00E85A
:1027EC00FFFF05E9AFF304E931F425E9CCF2FFFF73
:1027FC0087E9ABF26AEAECF20CF3CFF3A7E925E92F
:10280C0021E89EFF00E8BBFE42E831F4BBFE00E885
:10281C00B2F401E8F4F401E8B2F401E876FD01E861
:10282C0076FD62E8C4E892F4A7E9CFF3C4E851F46A
:10283C0059FE4EF359FEF4F4FFFFFFFFCCF287E98B
:10284C00C8E9A3E8DBFE10F4C8E909EAF0F301E8F3
:10285C00D7FD00E876FD42E84AEA83E855FD00E83A
:10286C00FFFF46E9AFF305E972F446E9E8E99AFEA1
:10287C00C8E9ABF28BF2ECF26AF26EF387E94AEA42
:10288C0021E839FE00E8FBFE42E830F4FBFE00E8EC
:10289C00D3F401E855F501E8B2F401E876FD01E85E
:1028AC0076FD42E809EA0DF3C8E972F4A3E871F485
:1028BC0059FEAFF3FFFFD7FDFFFFFFFF83E8DFFFFC
:1028CC00BEFFCCF2BAFEF0F3A7E98BF251F400E8AC
:1028DC00B7FD00E855FD00E86EF301E851F400E89F
:1028EC00FFFF6AEA05E901E8D7FD25E942E8A7E917
:1028FC0009EA4AF210F4A4E863E814F525E94DF36B
:10290C0000E814F500E86EF362E8F0F3FFFF00E86E
:10291C0066E942E818FE00E892F400E855FD00E88C
:10292C0055FD00E82DF366E94AEA25E921E851F462
:10293C007AFEE8E9B6FDD3F4FFFFFFFFA3E8FFFF43
:10294C00FFFF2DF37AFEB3F4CBF231F476FD46E9BA
:10295C0018FE46E9D7FD66E914F587E9CFF325E9BA
:10296C00FFFFFBFE83E8A7E9FFFF29EAC8E92DF387
:10297C002DF30DF3FFFF05E925E9FFFF09EA92F4BA
:10298C00C8E976FD0CF32DF3E8E992F4FFFF4EF362
:10299C0021E876FD59FE46E914F546E9D7FD46E9EE
:1029AC00D7FD66E9F4F466E955F586E929EAF4F40D
:1029BC0039FED3F4DFFF76FDFFFFFFFF83E8FFFF57
:1029CC00FFFFCCF238FEFFFFFFFFFFFFFFFFFFFF13
:1029DC00FFFFFFFFFFFFFFFFFFFFFFFFFFFFFFFFFB
:1029EC00FFFFFFFFFFFFFFFFFFFFFFFFFFFFFFFFEB
:1029FC00FFFFFFFFFFFFFFFFFFFFFFFFFFFFFFFFDB
:102A0C00FFFFFFFFFFFFFFFFFFFFFFFFFFFFFFFFCA
:102A1C00FFFFFFFFFFFFFFFFFFFFFFFFFFFFFFFFBA
:102A2C00FFFFFFFFFFFFFFFFFFFFFFFFFFFFFFFFAA
:102A3C0059FE8EF3BAFEF4F4FFFFFFFF4DF3FFFFD8
:102A4C00FFFFC8E959FEFBD6FBDE9AD6BAD6DFFFEC
:102A5C0038C6DBDEFFFFD7BDBEF759CE7DEF7DEF6D
:102A6C00FBDE79CEFFFF59CE18C6BAD679CEF8BDAB
:102A7C00FFFFB7B59EF7FFFFF7BDFFFFB7FDFFFFE9
:102A8C00B6B53CE7DBDE7DEF7DEFDBDE1CE7FBDE86
:102A9C00FFFFB6B59AD69EF7F8BDFFFF59FE5DE76E
:102AAC00FBDEBAD69EF759CE9EF77DEFBBD61CE760
:102ABC0059FE10F414F50CF3DFFFFFFFFFFFFFFFCF
:102ACC00FFFF00E89AFE9ACEF7BD9AD659CE79CE82
:102ADC009AD679CE3CE73CE7929459CE14A596B59C
:102AEC0038C69EF796B59AD659C6BEF7F7BD1CE701
:102AFC00B2947DEF518CFFFFD7BDFFFF2DF31CD798
:102B0C007DEF18C638C614A596B559CE38C6D394E1
:102B1C00FFFFBAD6BAD6B294BEF79EFF51FCDACEFE
:102B2C0059CE39C6D7BD79CEB7B5F39C18C6FFFFC1
:102B3C0039FED3F4FFFFFFFF52F4FFFFFFFFFFFF4F
:102B4C002DF301E89AFEBACEDBDE55A5BAD6F7BD59
:102B5C0055AD18C69AD6FFFFD394F7BD55AD96B5B3
:102B6C0096B559CE76ADDBDE79CEDFFF55A5FFFFEE
:102B7C003184FFFF718CFFFF55ADFFFF6EFB79C6F3
:102B8C00FFFF79CEBBD634A596B575AD9AD6F39C1E
:102B9C00FFFFD39C96B5BAD655A5DFFF92FC79C63C
:102BAC0096B5FBDED7BD7DEF38C6718C9EF759CE3E
:102BBC007AFE46E949EA49EA09EAE4E82DF366E9CE
:102BCC0062E8A3E89AFEF7B575AD75AD7DEF55AD2E
:102BDC0075AD75AD18BE149D34A5FFFF38C635A56F
:102BEC0034A5F7BD9AD679CE59CEBEF7BAD6D39CBA
:102BFC0038C614A555AD38C6F39CFFFF0CF3FFEF98
:102C0C00149DB6B576AD79CE34A596B5FFFF718C13
:102C1C0059CEB394BAD6B7BD55A5DFFF31FC79C6F2
:102C2C00D7B534A538C614A5F7BDB6B5F7BD59C68A
:102C3C007AFE72F492F492F4B3F4B3F492F4B3F423
:102C4C00D3F492F479FEFFFFFFFFFFFFFFFFFFFFBE
:102C5C00FFFFFFFFFFFFFFFFFFFFFFFFFFFFFFFF78
:102C6C00FFFFFFFFFFFFFFFFFFFFFFFFFFFFFFFF68
:102C7C00FFFFFFFFFFFFDFFFFFFFFFFFDBFEFFFF9D
:102C8C00DFFFFFFFFFFFFFFFFFFFFFFFFFFFFFFF68
:102C9C00FFFFFFFFFFFFFFFFFFFFFFFF3CFFFFFFFB
:102CAC00FFFFFFFFFFFFFFFFFFFFFFFFDFFFFFFF48
:102CBC00FFFFFFFFFFFFFFFFFFFFFFFFFFFFFFFF18
:102CCC00FFFFFFFFFFFFFFFFFFFFFFFFFFFFFFFF08
:102CDC00FFFFFFFFFFFFFFFFFFFFFFFFFFFFFFFFF8
:102CEC00FFFFFFFFFFFFFFFFFFFFFFFFFFFFFFFFE8
:04303C0052474200B5
:1030400044656D6F00000020007F000900018801C9
:103050000002910100039A010004A3010005AC01E4
:103060000007B5010006BE010001C7010003D00141
:103070000003D9010003E2010005EB010002F401A5
:103080000002FD010002060200030F020004180204
:103090000003210200042A020004330200053C025E
:1030A0000004450200044E020004570200046002BE
:1030B000000469020002720200027B020004840222
:1030C00000048D020004960200059F020009A80278
:1030D0000007BA020005C3020006CC020006D502B2
:1030E0000006DE020005E7020006F0020006F90213
:1030F0000002020300040B030006140300051D0375
:103100000007260300062F030006380300054103CD
:1031100000064A030006530300055C03000565032F
:1031200000066E0300077703000980030005920381
:1031300000069B030006A4030003AD030003B603CF
:103140000002BF030003C8030005D1030002DA0335
:103150000004E3030004EC030004F5030004FE0391
:1031600000040704000310040004190400042204EE
:1031700000012B040001340400043D040001460456
:1031800000074F04000458040004610400046A04AA
:103190000004730400037C040004850400028E0410
:1031A000000497040005A0040005A9040004B2046B
:1031B0000005BB040003C4040003CD040002D604D0
:1031C0000003DF040004E8040002F1040000000032
:1031D00000000000000002020202020002000005DE
:1031E00005000000000000000A0A0F0A0F05050094
:1031F000000E15050E14150E0400241A141028587C
:103200002800001C12120E29112E000001010000DE
:10321000000000000004020101010101020401029A
:103220000404040404020107020500000000000079
:10323000000004041F04040000000000000000025D
:103240000200000000000300000000000000000079
:103250000002000004040202020101000006090944
:103260000909090700000406040404040400000618
:1032700009080404020F00000609080408090600F2
:1032800000080C0A091F080800000E0207090809B7
:103290000600000609070909090600000F080404D2
:1032A00002020200000609090609090600000609D3
:1032B00009090E09060000000002000000020000DB
:1032C00000000200000002020000080402040800DE
:1032D000000000000F000F000000000002040804BE
:1032E000020000000E11100C04000400007800849D
:1032F0000052016A012A01AA007A008401780008BC
:103300001414223E224100000E12121E12120E0050
:10331000001C22020202221C00001E222222222263
:103320001E00003E02023E02023E00001E02020E8D
:1033300002020200001C22023222221C0000222271
:10334000223E2222220000020202020202020000A9
:1033500008080808080907000022120A060A1222B3
:1033600000000202020202021E0000416363555582
:10337000554900002226262A32322200001C222231
:103380002222221C00001E12121E02020200001C39
:1033900022222222123C00001E22221E1222220081
:1033A000000C12020C10120C00001F040404040490
:1033B0000400002222222222221C0000414122225B
:1033C000141408000011012901AA00AA00AA00AAE9
:1033D00000440000000000110A0A040A0A1100005B
:1033E0002214140808080800003F10080402013FD6
:1033F00000000602020202020202060101020202AB
:103400000404000003020202020202020302050594
:1034100000000000000000000000000000001F018C
:10342000020000000000000000000F080E090F005D
:103430000001010709090907000000000609010948
:1034400006000008080E0909090E00000000060920
:103450000F010E0000040207020202020000000039
:103460000E0909090E0906010107090909090000E9
:103470000100010101010100000100010101010140
:103480000100010109050705090000010101010111
:103490000101000000003F494949490000000007C0
:1034A00009090909000000000609090906000000D1
:1034B000000709090907010100000E0909090E08A2
:1034C0000800000701010101000000000E010608CC
:1034D00007000000010301010103000000000909C9
:1034E00009090E00000000110A0A0A040000000089
:1034F000151515150A00000000090606060900004A
:103500000000110A0A0A040402000007040201076D
:103510000000060202020102020206020202020288
:10352000020202000302020204020202030000007F
:0F3530000B0D000000000003030303030303005F
:10354000650700006707000066070000FFFFFFFF38
:10355000000000000000000000000000000000006B
:10356000000000000000000000000000000000005B
:103570000000000000000800000008000000080033
:10358000FFFFFFFF0000000000000000000000003F
:10359000000000000000000000000000000000002B
:0C35A0000000000000000000000000001F
:1035AC00450200004702000046020000FFFFFFFF3B
:1035BC0000000000000000000000000000000000FF
:1035CC0000000000000000000000000000000000EF
:1035DC0000000000000008000000080000000800C7
:1035EC00FFFFFFFF000000000000000000000000D3
:1035FC0000000000000000000000000000000000BF
:0C360C00000000000000000000000000B2
:1036180025130000191300000D130000290F0000E6
:10362800ED0E0000E10E0000D50E0000F90E0000BE
:103638001D0F0000110F0000050F00009D13000072
:10364800AD0A0000A10A0000C50A0000B90A00007E
:103658007D0A0000890A0000950A0000710A00002E
:10366800290A0000350A0000110A0000650A000056
:10367800020000000400000006000000080000002E
:103688001000000020000000400000008000000042
:103698000001000000020000000400000008000013
:1036A8000010000000200000004000000080000022
:1036B80002000000030000000500000007000000F1
:0836C800F1090000FFFFFFFF04
:0836D00020A1070007000080A3
:00000001FF
